{
  "contractName": "Checkbook",
  "abi": [
    {
      "inputs": [],
      "stateMutability": "nonpayable",
      "type": "constructor"
    },
    {
      "anonymous": false,
      "inputs": [
        {
          "indexed": false,
          "internalType": "uint256",
          "name": "checkNumber",
          "type": "uint256"
        },
        {
          "indexed": false,
          "internalType": "address",
          "name": "recipient",
          "type": "address"
        }
      ],
      "name": "CheckCashed",
      "type": "event"
    },
    {
      "anonymous": false,
      "inputs": [
        {
          "indexed": false,
          "internalType": "uint256",
          "name": "checkNumber",
          "type": "uint256"
        },
        {
          "indexed": false,
          "internalType": "address",
          "name": "recipient",
          "type": "address"
        },
        {
          "indexed": false,
          "internalType": "uint256",
          "name": "amount",
          "type": "uint256"
        }
      ],
      "name": "CheckIssued",
      "type": "event"
    },
    {
      "anonymous": false,
      "inputs": [
        {
          "indexed": false,
          "internalType": "uint256",
          "name": "checkNumber",
          "type": "uint256"
        },
        {
          "indexed": false,
          "internalType": "address",
          "name": "recipient",
          "type": "address"
        }
      ],
      "name": "CheckVerified",
      "type": "event"
    },
    {
      "inputs": [
        {
          "internalType": "uint256",
          "name": "",
          "type": "uint256"
        }
      ],
      "name": "cashedChecks",
      "outputs": [
        {
          "internalType": "bool",
          "name": "",
          "type": "bool"
        }
      ],
      "stateMutability": "view",
      "type": "function",
      "constant": true
    },
    {
      "inputs": [
        {
          "internalType": "uint256",
          "name": "",
          "type": "uint256"
        }
      ],
      "name": "issuedChecks",
      "outputs": [
        {
          "internalType": "bool",
          "name": "",
          "type": "bool"
        }
      ],
      "stateMutability": "view",
      "type": "function",
      "constant": true
    },
    {
      "inputs": [],
      "name": "owner",
      "outputs": [
        {
          "internalType": "address",
          "name": "",
          "type": "address"
        }
      ],
      "stateMutability": "view",
      "type": "function",
      "constant": true
    },
    {
      "inputs": [
        {
          "internalType": "uint256",
          "name": "",
          "type": "uint256"
        }
      ],
      "name": "verifiedChecks",
      "outputs": [
        {
          "internalType": "bool",
          "name": "",
          "type": "bool"
        }
      ],
      "stateMutability": "view",
      "type": "function",
      "constant": true
    },
    {
      "inputs": [
        {
          "internalType": "uint256",
          "name": "checkNumber",
          "type": "uint256"
        },
        {
          "internalType": "address",
          "name": "recipient",
          "type": "address"
        },
        {
          "internalType": "uint256",
          "name": "amount",
          "type": "uint256"
        }
      ],
      "name": "issueCheck",
      "outputs": [],
      "stateMutability": "nonpayable",
      "type": "function"
    },
    {
      "inputs": [
        {
          "internalType": "uint256",
          "name": "checkNumber",
          "type": "uint256"
        }
      ],
      "name": "verifyCheck",
      "outputs": [],
      "stateMutability": "nonpayable",
      "type": "function"
    },
    {
      "inputs": [
        {
          "internalType": "uint256",
          "name": "checkNumber",
          "type": "uint256"
        }
      ],
      "name": "cashCheck",
      "outputs": [],
      "stateMutability": "nonpayable",
      "type": "function"
    }
  ],
  "bytecode": "0x608060405234801561000f575f80fd5b50335f806101000a81548173ffffffffffffffffffffffffffffffffffffffff021916908373ffffffffffffffffffffffffffffffffffffffff160217905550610b008061005c5f395ff3fe608060405234801561000f575f80fd5b506004361061007b575f3560e01c80638da5cb5b116100595780638da5cb5b146100fb578063db154f9714610119578063ea92078714610135578063ec3c1235146101515761007b565b806336ee52581461007f5780635e4149a3146100af5780636f91c0cd146100df575b5f80fd5b610099600480360381019061009491906106af565b610181565b6040516100a691906106f4565b60405180910390f35b6100c960048036038101906100c491906106af565b61019e565b6040516100d691906106f4565b60405180910390f35b6100f960048036038101906100f49190610767565b6101bb565b005b61010361030e565b60405161011091906107c6565b60405180910390f35b610133600480360381019061012e91906106af565b610331565b005b61014f600480360381019061014a91906106af565b6104ae565b005b61016b600480360381019061016691906106af565b61065b565b60405161017891906106f4565b60405180910390f35b6003602052805f5260405f205f915054906101000a900460ff1681565b6001602052805f5260405f205f915054906101000a900460ff1681565b5f8054906101000a900473ffffffffffffffffffffffffffffffffffffffff1673ffffffffffffffffffffffffffffffffffffffff163373ffffffffffffffffffffffffffffffffffffffff1614610248576040517f08c379a000000000000000000000000000000000000000000000000000000000815260040161023f90610839565b60405180910390fd5b60015f8481526020019081526020015f205f9054906101000a900460ff16156102a6576040517f08c379a000000000000000000000000000000000000000000000000000000000815260040161029d906108a1565b60405180910390fd5b6001805f8581526020019081526020015f205f6101000a81548160ff0219169083151502179055507fc037884fcf25436af5ab5b6ff89578227d51ff6c437c2db192942204e70df908838383604051610301939291906108ce565b60405180910390a1505050565b5f8054906101000a900473ffffffffffffffffffffffffffffffffffffffff1681565b60015f8281526020019081526020015f205f9054906101000a900460ff1661038e576040517f08c379a00000000000000000000000000000000000000000000000000000000081526004016103859061094d565b60405180910390fd5b60025f8281526020019081526020015f205f9054906101000a900460ff166103eb576040517f08c379a00000000000000000000000000000000000000000000000000000000081526004016103e2906109b5565b60405180910390fd5b60035f8281526020019081526020015f205f9054906101000a900460ff1615610449576040517f08c379a000000000000000000000000000000000000000000000000000000000815260040161044090610a1d565b60405180910390fd5b600160035f8381526020019081526020015f205f6101000a81548160ff0219169083151502179055507f455be955bcd253795d005c8006a9cedab1aa046eb5e018c9bcf4dc3e5642931081336040516104a3929190610a3b565b60405180910390a150565b5f8054906101000a900473ffffffffffffffffffffffffffffffffffffffff1673ffffffffffffffffffffffffffffffffffffffff163373ffffffffffffffffffffffffffffffffffffffff161461053b576040517f08c379a000000000000000000000000000000000000000000000000000000000815260040161053290610839565b60405180910390fd5b60015f8281526020019081526020015f205f9054906101000a900460ff16610598576040517f08c379a000000000000000000000000000000000000000000000000000000000815260040161058f9061094d565b60405180910390fd5b60025f8281526020019081526020015f205f9054906101000a900460ff16156105f6576040517f08c379a00000000000000000000000000000000000000000000000000000000081526004016105ed90610aac565b60405180910390fd5b600160025f8381526020019081526020015f205f6101000a81548160ff0219169083151502179055507f39754204e4ad5800482238140add914c09816dd05c1dddd196363e2f42f4ac328133604051610650929190610a3b565b60405180910390a150565b6002602052805f5260405f205f915054906101000a900460ff1681565b5f80fd5b5f819050919050565b61068e8161067c565b8114610698575f80fd5b50565b5f813590506106a981610685565b92915050565b5f602082840312156106c4576106c3610678565b5b5f6106d18482850161069b565b91505092915050565b5f8115159050919050565b6106ee816106da565b82525050565b5f6020820190506107075f8301846106e5565b92915050565b5f73ffffffffffffffffffffffffffffffffffffffff82169050919050565b5f6107368261070d565b9050919050565b6107468161072c565b8114610750575f80fd5b50565b5f813590506107618161073d565b92915050565b5f805f6060848603121561077e5761077d610678565b5b5f61078b8682870161069b565b935050602061079c86828701610753565b92505060406107ad8682870161069b565b9150509250925092565b6107c08161072c565b82525050565b5f6020820190506107d95f8301846107b7565b92915050565b5f82825260208201905092915050565b7f4f6e6c79206f776e65722063616e2065786563757465207468697300000000005f82015250565b5f610823601b836107df565b915061082e826107ef565b602082019050919050565b5f6020820190508181035f83015261085081610817565b9050919050565b7f436865636b20616c7265616479206973737565640000000000000000000000005f82015250565b5f61088b6014836107df565b915061089682610857565b602082019050919050565b5f6020820190508181035f8301526108b88161087f565b9050919050565b6108c88161067c565b82525050565b5f6060820190506108e15f8301866108bf565b6108ee60208301856107b7565b6108fb60408301846108bf565b949350505050565b7f436865636b206e6f7420697373756564000000000000000000000000000000005f82015250565b5f6109376010836107df565b915061094282610903565b602082019050919050565b5f6020820190508181035f8301526109648161092b565b9050919050565b7f436865636b206e6f7420766572696669656400000000000000000000000000005f82015250565b5f61099f6012836107df565b91506109aa8261096b565b602082019050919050565b5f6020820190508181035f8301526109cc81610993565b9050919050565b7f436865636b20616c7265616479206361736865640000000000000000000000005f82015250565b5f610a076014836107df565b9150610a12826109d3565b602082019050919050565b5f6020820190508181035f830152610a34816109fb565b9050919050565b5f604082019050610a4e5f8301856108bf565b610a5b60208301846107b7565b9392505050565b7f436865636b20616c7265616479207665726966696564000000000000000000005f82015250565b5f610a966016836107df565b9150610aa182610a62565b602082019050919050565b5f6020820190508181035f830152610ac381610a8a565b905091905056fea2646970667358221220f128c770953f929a32bb3f061b80759b47ac6504dedd76ce5dd0dcbaddd0f90164736f6c63430008150033",
  "immutableReferences": {},
  "source": "// contracts/Checkbook.sol\r\n// SPDX-License-Identifier: MIT\r\npragma solidity ^0.8.0;\r\n\r\ncontract Checkbook {\r\n    address public owner;\r\n    mapping(uint256 => bool) public issuedChecks;\r\n    mapping(uint256 => bool) public verifiedChecks;\r\n    mapping(uint256 => bool) public cashedChecks;\r\n\r\n    event CheckIssued(uint256 checkNumber, address recipient, uint256 amount);\r\n    event CheckVerified(uint256 checkNumber, address recipient);\r\n    event CheckCashed(uint256 checkNumber, address recipient);\r\n\r\n    modifier onlyOwner() {\r\n        require(msg.sender == owner, \"Only owner can execute this\");\r\n        _;\r\n    }\r\n\r\n    constructor() {\r\n        owner = msg.sender;\r\n    }\r\n\r\n    function issueCheck(uint256 checkNumber, address recipient, uint256 amount) external onlyOwner {\r\n        require(!issuedChecks[checkNumber], \"Check already issued\");\r\n        issuedChecks[checkNumber] = true;\r\n        emit CheckIssued(checkNumber, recipient, amount);\r\n    }\r\n\r\n    function verifyCheck(uint256 checkNumber) external onlyOwner {\r\n        require(issuedChecks[checkNumber], \"Check not issued\");\r\n        require(!verifiedChecks[checkNumber], \"Check already verified\");\r\n        verifiedChecks[checkNumber] = true;\r\n        emit CheckVerified(checkNumber, msg.sender);\r\n    }\r\n\r\n    function cashCheck(uint256 checkNumber) external {\r\n        require(issuedChecks[checkNumber], \"Check not issued\");\r\n        require(verifiedChecks[checkNumber], \"Check not verified\");\r\n        require(!cashedChecks[checkNumber], \"Check already cashed\");\r\n        cashedChecks[checkNumber] = true;\r\n        emit CheckCashed(checkNumber, msg.sender);\r\n    }\r\n}\r\n",
  "sourcePath": "D:\\Desktop\\finalexam\\contracts\\Checkbook.sol",
  "compiler": {
    "name": "solc",
    "version": "0.8.21+commit.d9974bed.Emscripten.clang"
  },
  "schemaVersion": "3.4.16",
  "updatedAt": "2023-12-16T17:04:19.674Z",
  "networkType": "ethereum",
  "devdoc": {
    "kind": "dev",
    "methods": {},
    "version": 1
  },
  "userdoc": {
    "kind": "user",
    "methods": {},
    "version": 1
  }
}