{
  "contractName": "PaymentContract",
  "abi": [
    {
      "inputs": [
        {
          "internalType": "address",
          "name": "_payee",
          "type": "address"
        },
        {
          "internalType": "uint256",
          "name": "_amount",
          "type": "uint256"
        },
        {
          "internalType": "uint256",
          "name": "_expiry",
          "type": "uint256"
        }
      ],
      "stateMutability": "nonpayable",
      "type": "constructor"
    },
    {
      "anonymous": false,
      "inputs": [
        {
          "indexed": true,
          "internalType": "address",
          "name": "payer",
          "type": "address"
        },
        {
          "indexed": true,
          "internalType": "address",
          "name": "payee",
          "type": "address"
        },
        {
          "indexed": false,
          "internalType": "uint256",
          "name": "amount",
          "type": "uint256"
        },
        {
          "indexed": false,
          "internalType": "uint256",
          "name": "expiry",
          "type": "uint256"
        }
      ],
      "name": "ContractDeployed",
      "type": "event"
    },
    {
      "anonymous": false,
      "inputs": [
        {
          "indexed": true,
          "internalType": "address",
          "name": "payee",
          "type": "address"
        },
        {
          "indexed": false,
          "internalType": "uint256",
          "name": "amount",
          "type": "uint256"
        }
      ],
      "name": "Withdrawal",
      "type": "event"
    },
    {
      "inputs": [],
      "name": "amount",
      "outputs": [
        {
          "internalType": "uint256",
          "name": "",
          "type": "uint256"
        }
      ],
      "stateMutability": "view",
      "type": "function",
      "constant": true
    },
    {
      "inputs": [],
      "name": "expiry",
      "outputs": [
        {
          "internalType": "uint256",
          "name": "",
          "type": "uint256"
        }
      ],
      "stateMutability": "view",
      "type": "function",
      "constant": true
    },
    {
      "inputs": [],
      "name": "payee",
      "outputs": [
        {
          "internalType": "address",
          "name": "",
          "type": "address"
        }
      ],
      "stateMutability": "view",
      "type": "function",
      "constant": true
    },
    {
      "inputs": [],
      "name": "payer",
      "outputs": [
        {
          "internalType": "address",
          "name": "",
          "type": "address"
        }
      ],
      "stateMutability": "view",
      "type": "function",
      "constant": true
    },
    {
      "inputs": [
        {
          "internalType": "uint256",
          "name": "_newAmount",
          "type": "uint256"
        }
      ],
      "name": "updateAmount",
      "outputs": [],
      "stateMutability": "nonpayable",
      "type": "function"
    },
    {
      "inputs": [],
      "name": "makePayment",
      "outputs": [],
      "stateMutability": "payable",
      "type": "function",
      "payable": true
    }
  ],
  "bytecode": "0x60806040523480156200001157600080fd5b5060405162000a8538038062000a85833981810160405281019062000037919062000338565b336000806101000a81548173ffffffffffffffffffffffffffffffffffffffff021916908373ffffffffffffffffffffffffffffffffffffffff16021790555082600160006101000a81548173ffffffffffffffffffffffffffffffffffffffff021916908373ffffffffffffffffffffffffffffffffffffffff16021790555060008211620000fe576040517f08c379a0000000000000000000000000000000000000000000000000000000008152600401620000f590620003e1565b60405180910390fd5b81600281905550804262000113919062000441565b600381905550600073ffffffffffffffffffffffffffffffffffffffff1660008054906101000a900473ffffffffffffffffffffffffffffffffffffffff1673ffffffffffffffffffffffffffffffffffffffff1614156200019e577f4e487b7100000000000000000000000000000000000000000000000000000000600052600160045260246000fd5b600073ffffffffffffffffffffffffffffffffffffffff16600160009054906101000a900473ffffffffffffffffffffffffffffffffffffffff1673ffffffffffffffffffffffffffffffffffffffff16141562000225577f4e487b7100000000000000000000000000000000000000000000000000000000600052600160045260246000fd5b6000600254116200025f577f4e487b7100000000000000000000000000000000000000000000000000000000600052600160045260246000fd5b426003541162000298577f4e487b7100000000000000000000000000000000000000000000000000000000600052600160045260246000fd5b8273ffffffffffffffffffffffffffffffffffffffff163373ffffffffffffffffffffffffffffffffffffffff167fd01826868439c161ed2c616ae838aab4c7080a40d19eb0f34eca24a30999649a8484604051620002f992919062000403565b60405180910390a35050506200053f565b6000815190506200031b816200050b565b92915050565b600081519050620003328162000525565b92915050565b6000806000606084860312156200034e57600080fd5b60006200035e868287016200030a565b9350506020620003718682870162000321565b9250506040620003848682870162000321565b9150509250925092565b60006200039d601d8362000430565b91507f416d6f756e74206d7573742062652067726561746572207468616e20300000006000830152602082019050919050565b620003db81620004d2565b82525050565b60006020820190508181036000830152620003fc816200038e565b9050919050565b60006040820190506200041a6000830185620003d0565b620004296020830184620003d0565b9392505050565b600082825260208201905092915050565b60006200044e82620004d2565b91506200045b83620004d2565b9250827fffffffffffffffffffffffffffffffffffffffffffffffffffffffffffffffff03821115620004935762000492620004dc565b5b828201905092915050565b6000620004ab82620004b2565b9050919050565b600073ffffffffffffffffffffffffffffffffffffffff82169050919050565b6000819050919050565b7f4e487b7100000000000000000000000000000000000000000000000000000000600052601160045260246000fd5b62000516816200049e565b81146200052257600080fd5b50565b6200053081620004d2565b81146200053c57600080fd5b50565b610536806200054f6000396000f3fe6080604052600436106100555760003560e01c8063123119cd1461005a57806334d6093d14610085578063aa8c217c146100ae578063ae90b213146100d9578063d8d7970014610104578063e184c9be1461010e575b600080fd5b34801561006657600080fd5b5061006f610139565b60405161007c9190610426565b60405180910390f35b34801561009157600080fd5b506100ac60048036038101906100a7919061035f565b61015d565b005b3480156100ba57600080fd5b506100c36101f5565b6040516100d09190610481565b60405180910390f35b3480156100e557600080fd5b506100ee6101fb565b6040516100fb9190610426565b60405180910390f35b61010c610221565b005b34801561011a57600080fd5b50610123610344565b6040516101309190610481565b60405180910390f35b60008054906101000a900473ffffffffffffffffffffffffffffffffffffffff1681565b60008054906101000a900473ffffffffffffffffffffffffffffffffffffffff1673ffffffffffffffffffffffffffffffffffffffff163373ffffffffffffffffffffffffffffffffffffffff16146101eb576040517f08c379a00000000000000000000000000000000000000000000000000000000081526004016101e290610461565b60405180910390fd5b8060028190555050565b60025481565b600160009054906101000a900473ffffffffffffffffffffffffffffffffffffffff1681565b6002543414610265576040517f08c379a000000000000000000000000000000000000000000000000000000000815260040161025c90610441565b60405180910390fd5b600160009054906101000a900473ffffffffffffffffffffffffffffffffffffffff1673ffffffffffffffffffffffffffffffffffffffff167f7fcf532c15f0a6db0bd6d0e038bea71d30d808c7d98cb3bf7268a95bf5081b656002546040516102cf9190610481565b60405180910390a2600160009054906101000a900473ffffffffffffffffffffffffffffffffffffffff1673ffffffffffffffffffffffffffffffffffffffff166108fc6002549081150290604051600060405180830381858888f19350505050158015610341573d6000803e3d6000fd5b50565b60035481565b600081359050610359816104e9565b92915050565b60006020828403121561037157600080fd5b600061037f8482850161034a565b91505092915050565b610391816104ad565b82525050565b60006103a460188361049c565b91507f496e636f7272656374207061796d656e7420616d6f756e7400000000000000006000830152602082019050919050565b60006103e4601b8361049c565b91507f4f6e6c792070617965722063616e2065786563757465207468697300000000006000830152602082019050919050565b610420816104df565b82525050565b600060208201905061043b6000830184610388565b92915050565b6000602082019050818103600083015261045a81610397565b9050919050565b6000602082019050818103600083015261047a816103d7565b9050919050565b60006020820190506104966000830184610417565b92915050565b600082825260208201905092915050565b60006104b8826104bf565b9050919050565b600073ffffffffffffffffffffffffffffffffffffffff82169050919050565b6000819050919050565b6104f2816104df565b81146104fd57600080fd5b5056fea2646970667358221220538b539bdc36fedf43e3518b97af52cf5ec4f838f2726dc6dcaafffa79c241e064736f6c63430008000033",
  "immutableReferences": {},
  "source": "// contracts/PaymentContract.sol\r\n// SPDX-License-Identifier: MIT\r\npragma solidity ^0.8.0;\r\n\r\ncontract PaymentContract {\r\n    address public payer;\r\n    address public payee;\r\n    uint public amount;\r\n    uint public expiry;\r\n\r\n    event ContractDeployed(address indexed payer, address indexed payee, uint amount, uint expiry);\r\n    event Withdrawal(address indexed payee, uint amount); //  Withdrawal \r\n\r\n    modifier onlyPayer() {\r\n        require(msg.sender == payer, \"Only payer can execute this\");\r\n        _;\r\n    }\r\n\r\n    modifier enoughBalance() {\r\n        require(payable(msg.sender).balance >= amount, \"Insufficient balance to deploy the contract\");\r\n        _;\r\n    }\r\n\r\n    modifier contractNotExpired() {\r\n        require(block.timestamp <= expiry, \"Contract has expired\");\r\n        _;\r\n    }\r\n\r\n    constructor(address _payee, uint _amount, uint _expiry) {\r\n        payer = msg.sender;\r\n        payee = _payee;\r\n        require(_amount > 0, \"Amount must be greater than 0\");\r\n        amount = _amount;\r\n        expiry = block.timestamp + _expiry;\r\n\r\n        //  assert \r\n        assert(payer != address(0));\r\n        assert(payee != address(0));\r\n        assert(amount > 0);\r\n        assert(expiry > block.timestamp);\r\n\r\n        // Emit the event when the contract is deployed\r\n        emit ContractDeployed(msg.sender, _payee, _amount, _expiry);\r\n    }\r\n\r\n    modifier onlyPayee() {\r\n        require(msg.sender == payee, \"Only payee can execute this\");\r\n        _;\r\n    }\r\n\r\n    function updateAmount(uint _newAmount) external onlyPayer {\r\n        amount = _newAmount;\r\n    }\r\n\r\n    function makePayment() external payable {\r\n        require(msg.value == amount, \"Incorrect payment amount\");\r\n        emit Withdrawal(payee, amount);\r\n        payable(payee).transfer(amount);\r\n    }\r\n}\r\n",
  "sourcePath": "D:\\Desktop\\finalexam\\contracts\\PaymentContract.sol",
  "compiler": {
    "name": "solc",
    "version": "0.8.0+commit.c7dfd78e.Emscripten.clang"
  },
  "schemaVersion": "3.4.16",
  "updatedAt": "2023-12-17T08:34:54.220Z",
  "networkType": "ethereum",
  "devdoc": {
    "kind": "dev",
    "methods": {},
    "version": 1
  },
  "userdoc": {
    "kind": "user",
    "methods": {},
    "version": 1
  }
}